{
  "_format": "hh-sol-artifact-1",
  "contractName": "Ticket",
  "sourceName": "contracts/Ticket.sol",
  "abi": [
    {
      "inputs": [
        {
          "internalType": "string",
          "name": "name",
          "type": "string"
        },
        {
          "internalType": "uint256",
          "name": "maxSupply",
          "type": "uint256"
        },
        {
          "internalType": "uint256",
          "name": "ticketPrice",
          "type": "uint256"
        }
      ],
      "stateMutability": "nonpayable",
      "type": "constructor"
    },
    {
      "inputs": [
        {
          "internalType": "address",
          "name": "sender",
          "type": "address"
        },
        {
          "internalType": "uint256",
          "name": "tokenId",
          "type": "uint256"
        },
        {
          "internalType": "address",
          "name": "owner",
          "type": "address"
        }
      ],
      "name": "ERC721IncorrectOwner",
      "type": "error"
    },
    {
      "inputs": [
        {
          "internalType": "address",
          "name": "operator",
          "type": "address"
        },
        {
          "internalType": "uint256",
          "name": "tokenId",
          "type": "uint256"
        }
      ],
      "name": "ERC721InsufficientApproval",
      "type": "error"
    },
    {
      "inputs": [
        {
          "internalType": "address",
          "name": "approver",
          "type": "address"
        }
      ],
      "name": "ERC721InvalidApprover",
      "type": "error"
    },
    {
      "inputs": [
        {
          "internalType": "address",
          "name": "operator",
          "type": "address"
        }
      ],
      "name": "ERC721InvalidOperator",
      "type": "error"
    },
    {
      "inputs": [
        {
          "internalType": "address",
          "name": "owner",
          "type": "address"
        }
      ],
      "name": "ERC721InvalidOwner",
      "type": "error"
    },
    {
      "inputs": [
        {
          "internalType": "address",
          "name": "receiver",
          "type": "address"
        }
      ],
      "name": "ERC721InvalidReceiver",
      "type": "error"
    },
    {
      "inputs": [
        {
          "internalType": "address",
          "name": "sender",
          "type": "address"
        }
      ],
      "name": "ERC721InvalidSender",
      "type": "error"
    },
    {
      "inputs": [
        {
          "internalType": "uint256",
          "name": "tokenId",
          "type": "uint256"
        }
      ],
      "name": "ERC721NonexistentToken",
      "type": "error"
    },
    {
      "inputs": [],
      "name": "EnforcedPause",
      "type": "error"
    },
    {
      "inputs": [],
      "name": "ExpectedPause",
      "type": "error"
    },
    {
      "inputs": [
        {
          "internalType": "address",
          "name": "owner",
          "type": "address"
        }
      ],
      "name": "OwnableInvalidOwner",
      "type": "error"
    },
    {
      "inputs": [
        {
          "internalType": "address",
          "name": "account",
          "type": "address"
        }
      ],
      "name": "OwnableUnauthorizedAccount",
      "type": "error"
    },
    {
      "anonymous": false,
      "inputs": [
        {
          "indexed": true,
          "internalType": "address",
          "name": "owner",
          "type": "address"
        },
        {
          "indexed": true,
          "internalType": "address",
          "name": "approved",
          "type": "address"
        },
        {
          "indexed": true,
          "internalType": "uint256",
          "name": "tokenId",
          "type": "uint256"
        }
      ],
      "name": "Approval",
      "type": "event"
    },
    {
      "anonymous": false,
      "inputs": [
        {
          "indexed": true,
          "internalType": "address",
          "name": "owner",
          "type": "address"
        },
        {
          "indexed": true,
          "internalType": "address",
          "name": "operator",
          "type": "address"
        },
        {
          "indexed": false,
          "internalType": "bool",
          "name": "approved",
          "type": "bool"
        }
      ],
      "name": "ApprovalForAll",
      "type": "event"
    },
    {
      "anonymous": false,
      "inputs": [
        {
          "indexed": false,
          "internalType": "uint256",
          "name": "_fromTokenId",
          "type": "uint256"
        },
        {
          "indexed": false,
          "internalType": "uint256",
          "name": "_toTokenId",
          "type": "uint256"
        }
      ],
      "name": "BatchMetadataUpdate",
      "type": "event"
    },
    {
      "anonymous": false,
      "inputs": [
        {
          "indexed": false,
          "internalType": "uint256",
          "name": "_tokenId",
          "type": "uint256"
        }
      ],
      "name": "MetadataUpdate",
      "type": "event"
    },
    {
      "anonymous": false,
      "inputs": [
        {
          "indexed": true,
          "internalType": "address",
          "name": "previousOwner",
          "type": "address"
        },
        {
          "indexed": true,
          "internalType": "address",
          "name": "newOwner",
          "type": "address"
        }
      ],
      "name": "OwnershipTransferred",
      "type": "event"
    },
    {
      "anonymous": false,
      "inputs": [
        {
          "indexed": false,
          "internalType": "address",
          "name": "account",
          "type": "address"
        }
      ],
      "name": "Paused",
      "type": "event"
    },
    {
      "anonymous": false,
      "inputs": [
        {
          "indexed": false,
          "internalType": "string",
          "name": "_value",
          "type": "string"
        },
        {
          "indexed": true,
          "internalType": "uint256",
          "name": "_id",
          "type": "uint256"
        },
        {
          "indexed": true,
          "internalType": "address",
          "name": "_to",
          "type": "address"
        }
      ],
      "name": "PermanentURI",
      "type": "event"
    },
    {
      "anonymous": false,
      "inputs": [
        {
          "indexed": true,
          "internalType": "address",
          "name": "_to",
          "type": "address"
        },
        {
          "indexed": true,
          "internalType": "uint256",
          "name": "_tokenId",
          "type": "uint256"
        }
      ],
      "name": "TicketMinted",
      "type": "event"
    },
    {
      "anonymous": false,
      "inputs": [
        {
          "indexed": true,
          "internalType": "address",
          "name": "from",
          "type": "address"
        },
        {
          "indexed": true,
          "internalType": "address",
          "name": "to",
          "type": "address"
        },
        {
          "indexed": true,
          "internalType": "uint256",
          "name": "tokenId",
          "type": "uint256"
        }
      ],
      "name": "Transfer",
      "type": "event"
    },
    {
      "anonymous": false,
      "inputs": [
        {
          "indexed": false,
          "internalType": "address",
          "name": "account",
          "type": "address"
        }
      ],
      "name": "Unpaused",
      "type": "event"
    },
    {
      "inputs": [],
      "name": "MAX_PER_MINT",
      "outputs": [
        {
          "internalType": "uint256",
          "name": "",
          "type": "uint256"
        }
      ],
      "stateMutability": "view",
      "type": "function"
    },
    {
      "inputs": [],
      "name": "MAX_SUPPLY",
      "outputs": [
        {
          "internalType": "uint256",
          "name": "",
          "type": "uint256"
        }
      ],
      "stateMutability": "view",
      "type": "function"
    },
    {
      "inputs": [],
      "name": "_ticketPrice",
      "outputs": [
        {
          "internalType": "uint256",
          "name": "",
          "type": "uint256"
        }
      ],
      "stateMutability": "view",
      "type": "function"
    },
    {
      "inputs": [
        {
          "internalType": "address",
          "name": "to",
          "type": "address"
        },
        {
          "internalType": "uint256",
          "name": "tokenId",
          "type": "uint256"
        }
      ],
      "name": "approve",
      "outputs": [],
      "stateMutability": "nonpayable",
      "type": "function"
    },
    {
      "inputs": [
        {
          "internalType": "address",
          "name": "owner",
          "type": "address"
        }
      ],
      "name": "balanceOf",
      "outputs": [
        {
          "internalType": "uint256",
          "name": "",
          "type": "uint256"
        }
      ],
      "stateMutability": "view",
      "type": "function"
    },
    {
      "inputs": [],
      "name": "contractBalance",
      "outputs": [
        {
          "internalType": "uint256",
          "name": "",
          "type": "uint256"
        }
      ],
      "stateMutability": "view",
      "type": "function"
    },
    {
      "inputs": [],
      "name": "eventOwner",
      "outputs": [
        {
          "internalType": "address",
          "name": "",
          "type": "address"
        }
      ],
      "stateMutability": "view",
      "type": "function"
    },
    {
      "inputs": [
        {
          "internalType": "uint256",
          "name": "tokenId",
          "type": "uint256"
        }
      ],
      "name": "getApproved",
      "outputs": [
        {
          "internalType": "address",
          "name": "",
          "type": "address"
        }
      ],
      "stateMutability": "view",
      "type": "function"
    },
    {
      "inputs": [
        {
          "internalType": "address",
          "name": "owner",
          "type": "address"
        },
        {
          "internalType": "address",
          "name": "operator",
          "type": "address"
        }
      ],
      "name": "isApprovedForAll",
      "outputs": [
        {
          "internalType": "bool",
          "name": "",
          "type": "bool"
        }
      ],
      "stateMutability": "view",
      "type": "function"
    },
    {
      "inputs": [
        {
          "internalType": "uint256",
          "name": "amount",
          "type": "uint256"
        },
        {
          "internalType": "string",
          "name": "_tokenURI",
          "type": "string"
        }
      ],
      "name": "mint",
      "outputs": [],
      "stateMutability": "payable",
      "type": "function"
    },
    {
      "inputs": [],
      "name": "name",
      "outputs": [
        {
          "internalType": "string",
          "name": "",
          "type": "string"
        }
      ],
      "stateMutability": "view",
      "type": "function"
    },
    {
      "inputs": [],
      "name": "owner",
      "outputs": [
        {
          "internalType": "address",
          "name": "",
          "type": "address"
        }
      ],
      "stateMutability": "view",
      "type": "function"
    },
    {
      "inputs": [
        {
          "internalType": "uint256",
          "name": "tokenId",
          "type": "uint256"
        }
      ],
      "name": "ownerOf",
      "outputs": [
        {
          "internalType": "address",
          "name": "",
          "type": "address"
        }
      ],
      "stateMutability": "view",
      "type": "function"
    },
    {
      "inputs": [],
      "name": "pause",
      "outputs": [],
      "stateMutability": "nonpayable",
      "type": "function"
    },
    {
      "inputs": [],
      "name": "paused",
      "outputs": [
        {
          "internalType": "bool",
          "name": "",
          "type": "bool"
        }
      ],
      "stateMutability": "view",
      "type": "function"
    },
    {
      "inputs": [],
      "name": "renounceOwnership",
      "outputs": [],
      "stateMutability": "nonpayable",
      "type": "function"
    },
    {
      "inputs": [
        {
          "internalType": "address",
          "name": "from",
          "type": "address"
        },
        {
          "internalType": "address",
          "name": "to",
          "type": "address"
        },
        {
          "internalType": "uint256",
          "name": "tokenId",
          "type": "uint256"
        }
      ],
      "name": "safeTransferFrom",
      "outputs": [],
      "stateMutability": "nonpayable",
      "type": "function"
    },
    {
      "inputs": [
        {
          "internalType": "address",
          "name": "from",
          "type": "address"
        },
        {
          "internalType": "address",
          "name": "to",
          "type": "address"
        },
        {
          "internalType": "uint256",
          "name": "tokenId",
          "type": "uint256"
        },
        {
          "internalType": "bytes",
          "name": "data",
          "type": "bytes"
        }
      ],
      "name": "safeTransferFrom",
      "outputs": [],
      "stateMutability": "nonpayable",
      "type": "function"
    },
    {
      "inputs": [
        {
          "internalType": "address",
          "name": "operator",
          "type": "address"
        },
        {
          "internalType": "bool",
          "name": "approved",
          "type": "bool"
        }
      ],
      "name": "setApprovalForAll",
      "outputs": [],
      "stateMutability": "nonpayable",
      "type": "function"
    },
    {
      "inputs": [
        {
          "internalType": "uint256",
          "name": "_price",
          "type": "uint256"
        }
      ],
      "name": "setPrice",
      "outputs": [],
      "stateMutability": "nonpayable",
      "type": "function"
    },
    {
      "inputs": [
        {
          "internalType": "bytes4",
          "name": "interfaceId",
          "type": "bytes4"
        }
      ],
      "name": "supportsInterface",
      "outputs": [
        {
          "internalType": "bool",
          "name": "",
          "type": "bool"
        }
      ],
      "stateMutability": "view",
      "type": "function"
    },
    {
      "inputs": [],
      "name": "symbol",
      "outputs": [
        {
          "internalType": "string",
          "name": "",
          "type": "string"
        }
      ],
      "stateMutability": "view",
      "type": "function"
    },
    {
      "inputs": [],
      "name": "tokenId",
      "outputs": [
        {
          "internalType": "uint256",
          "name": "",
          "type": "uint256"
        }
      ],
      "stateMutability": "view",
      "type": "function"
    },
    {
      "inputs": [
        {
          "internalType": "uint256",
          "name": "_tokenId",
          "type": "uint256"
        }
      ],
      "name": "tokenMeta",
      "outputs": [
        {
          "internalType": "string",
          "name": "",
          "type": "string"
        }
      ],
      "stateMutability": "view",
      "type": "function"
    },
    {
      "inputs": [
        {
          "internalType": "uint256",
          "name": "tokenId",
          "type": "uint256"
        }
      ],
      "name": "tokenURI",
      "outputs": [
        {
          "internalType": "string",
          "name": "",
          "type": "string"
        }
      ],
      "stateMutability": "view",
      "type": "function"
    },
    {
      "inputs": [
        {
          "internalType": "address",
          "name": "from",
          "type": "address"
        },
        {
          "internalType": "address",
          "name": "to",
          "type": "address"
        },
        {
          "internalType": "uint256",
          "name": "tokenId",
          "type": "uint256"
        }
      ],
      "name": "transferFrom",
      "outputs": [],
      "stateMutability": "nonpayable",
      "type": "function"
    },
    {
      "inputs": [
        {
          "internalType": "address",
          "name": "newOwner",
          "type": "address"
        }
      ],
      "name": "transferOwnership",
      "outputs": [],
      "stateMutability": "nonpayable",
      "type": "function"
    },
    {
      "inputs": [],
      "name": "unpause",
      "outputs": [],
      "stateMutability": "nonpayable",
      "type": "function"
    },
    {
      "inputs": [],
      "name": "withdraw",
      "outputs": [],
      "stateMutability": "nonpayable",
      "type": "function"
    }
  ],
  "bytecode": "0x60806040526000600a5566038d7ea4c68000600b553480156200002157600080fd5b5060405162001e2f38038062001e2f833981016040819052620000449162000154565b6040805180820190915260038152621150d560ea1b6020820152329084906000620000708382620002ca565b5060016200007f8282620002ca565b5050506001600160a01b038116620000b157604051631e4fbdf760e01b81526000600482015260240160405180910390fd5b620000bc81620000ec565b506007805460ff60a01b19169055600891909155600980546001600160a01b03191632179055600b555062000396565b600780546001600160a01b038381166001600160a01b0319831681179093556040519116919082907f8be0079c531659141344cd1fd0a4f28419497f9722a3daafe3b4186f6b6457e090600090a35050565b634e487b7160e01b600052604160045260246000fd5b6000806000606084860312156200016a57600080fd5b83516001600160401b03808211156200018257600080fd5b818601915086601f8301126200019757600080fd5b815181811115620001ac57620001ac6200013e565b604051601f8201601f19908116603f01168101908382118183101715620001d757620001d76200013e565b81604052828152602093508984848701011115620001f457600080fd5b600091505b82821015620002185784820184015181830185015290830190620001f9565b600092810184019290925250908601516040909601519097959650949350505050565b600181811c908216806200025057607f821691505b6020821081036200027157634e487b7160e01b600052602260045260246000fd5b50919050565b601f821115620002c557600081815260208120601f850160051c81016020861015620002a05750805b601f850160051c820191505b81811015620002c157828155600101620002ac565b5050505b505050565b81516001600160401b03811115620002e657620002e66200013e565b620002fe81620002f784546200023b565b8462000277565b602080601f8311600181146200033657600084156200031d5750858301515b600019600386901b1c1916600185901b178555620002c1565b600085815260208120601f198616915b82811015620003675788860151825594840194600190910190840162000346565b5085821015620003865787850151600019600388901b60f8161c191681555b5050505050600190811b01905550565b611a8980620003a66000396000f3fe6080604052600436106101c25760003560e01c80636352211e116100f75780638da5cb5b11610095578063b88d4fde11610064578063b88d4fde146104a9578063c87b56dd146104c9578063e985e9c5146104e9578063f2fde38b1461050957600080fd5b80638da5cb5b1461043657806391b7f5ed1461045457806395d89b4114610474578063a22cb4651461048957600080fd5b806377097fc8116100d157806377097fc8146103e55780637e40be66146103f85780638456cb591461040e5780638b7afe2e1461042357600080fd5b80636352211e1461039057806370a08231146103b0578063715018a6146103d057600080fd5b806320214134116101645780633ccfd60b1161013e5780633ccfd60b146103275780633f4ba83a1461033c57806342842e0e146103515780635c975abb1461037157600080fd5b806320214134146102d157806323b872dd146102f157806332cb6b0c1461031157600080fd5b8063095ea7b3116101a0578063095ea7b31461025657806309d42b30146102785780630ae7a3101461029b57806317d70f7c146102bb57600080fd5b806301ffc9a7146101c757806306fdde03146101fc578063081812fc1461021e575b600080fd5b3480156101d357600080fd5b506101e76101e236600461150a565b610529565b60405190151581526020015b60405180910390f35b34801561020857600080fd5b50610211610554565b6040516101f39190611577565b34801561022a57600080fd5b5061023e61023936600461158a565b6105e6565b6040516001600160a01b0390911681526020016101f3565b34801561026257600080fd5b506102766102713660046115bf565b61060f565b005b34801561028457600080fd5b5061028d600581565b6040519081526020016101f3565b3480156102a757600080fd5b506102116102b636600461158a565b61061e565b3480156102c757600080fd5b5061028d600a5481565b3480156102dd57600080fd5b5060095461023e906001600160a01b031681565b3480156102fd57600080fd5b5061027661030c3660046115e9565b610629565b34801561031d57600080fd5b5061028d60085481565b34801561033357600080fd5b506102766106b9565b34801561034857600080fd5b506102766106f0565b34801561035d57600080fd5b5061027661036c3660046115e9565b610702565b34801561037d57600080fd5b50600754600160a01b900460ff166101e7565b34801561039c57600080fd5b5061023e6103ab36600461158a565b610722565b3480156103bc57600080fd5b5061028d6103cb366004611625565b61072d565b3480156103dc57600080fd5b50610276610775565b6102766103f33660046116cc565b610787565b34801561040457600080fd5b5061028d600b5481565b34801561041a57600080fd5b50610276610975565b34801561042f57600080fd5b504761028d565b34801561044257600080fd5b506007546001600160a01b031661023e565b34801561046057600080fd5b5061027661046f36600461158a565b610985565b34801561048057600080fd5b50610211610992565b34801561049557600080fd5b506102766104a4366004611727565b6109a1565b3480156104b557600080fd5b506102766104c4366004611763565b6109ac565b3480156104d557600080fd5b506102116104e436600461158a565b6109c3565b3480156104f557600080fd5b506101e76105043660046117df565b610ad4565b34801561051557600080fd5b50610276610524366004611625565b610b02565b60006001600160e01b03198216632483248360e11b148061054e575061054e82610b40565b92915050565b60606000805461056390611812565b80601f016020809104026020016040519081016040528092919081815260200182805461058f90611812565b80156105dc5780601f106105b1576101008083540402835291602001916105dc565b820191906000526020600020905b8154815290600101906020018083116105bf57829003601f168201915b5050505050905090565b60006105f182610b90565b506000828152600460205260409020546001600160a01b031661054e565b61061a828233610bc9565b5050565b606061054e826109c3565b6001600160a01b03821661065857604051633250574960e11b8152600060048201526024015b60405180910390fd5b6000610665838333610bd6565b9050836001600160a01b0316816001600160a01b0316146106b3576040516364283d7b60e01b81526001600160a01b038086166004830152602482018490528216604482015260640161064f565b50505050565b6106c1610ccf565b6040514790339082156108fc029083906000818181858888f1935050505015801561061a573d6000803e3d6000fd5b6106f8610ccf565b610700610cfc565b565b61071d838383604051806020016040528060008152506109ac565b505050565b600061054e82610b90565b60006001600160a01b038216610759576040516322718ad960e21b81526000600482015260240161064f565b506001600160a01b031660009081526003602052604090205490565b61077d610ccf565b6107006000610d51565b61078f610da3565b8160058111156107f35760405162461bcd60e51b815260206004820152602960248201527f43616e6e6f74206d696e74206d6f7265207468616e2035207469636b65747320604482015268617420612074696d6560b81b606482015260840161064f565b80600b546108019190611862565b3410156108465760405162461bcd60e51b8152602060048201526013602482015272139bdd08195b9bdd59da08115512081cd95b9d606a1b604482015260640161064f565b60085481600a546108579190611879565b11156108a55760405162461bcd60e51b815260206004820152601760248201527f4e6f7420656e6f756768207469636b657473206c656674000000000000000000604482015260640161064f565b600081116108f55760405162461bcd60e51b815260206004820181905260248201527f416d6f756e74206d7573742062652067726561746572207468616e207a65726f604482015260640161064f565b60015b8381116106b357600a805490600061090f8361188c565b919050555061092033600a54610dce565b61092c600a5484610de8565b61093584610e38565b600a5460405133907fe3bc6f5972e89b7adec47f0277204f27cd981570e200dd4d408093535c9e8e6990600090a38061096d8161188c565b9150506108f8565b61097d610ccf565b610700610e96565b61098d610ccf565b600b55565b60606001805461056390611812565b61061a338383610ed9565b6109b7848484610629565b6106b384848484610f78565b60606109ce82610b90565b50600082815260066020526040812080546109e890611812565b80601f0160208091040260200160405190810160405280929190818152602001828054610a1490611812565b8015610a615780601f10610a3657610100808354040283529160200191610a61565b820191906000526020600020905b815481529060010190602001808311610a4457829003601f168201915b505050505090506000610a7f60408051602081019091526000815290565b90508051600003610a91575092915050565b815115610ac3578082604051602001610aab9291906118a5565b60405160208183030381529060405292505050919050565b610acc846110a1565b949350505050565b6001600160a01b03918216600090815260056020908152604080832093909416825291909152205460ff1690565b610b0a610ccf565b6001600160a01b038116610b3457604051631e4fbdf760e01b81526000600482015260240161064f565b610b3d81610d51565b50565b60006001600160e01b031982166380ac58cd60e01b1480610b7157506001600160e01b03198216635b5e139f60e01b145b8061054e57506301ffc9a760e01b6001600160e01b031983161461054e565b6000818152600260205260408120546001600160a01b03168061054e57604051637e27328960e01b81526004810184905260240161064f565b61071d8383836001611116565b6000828152600260205260408120546001600160a01b0390811690831615610c0357610c0381848661121c565b6001600160a01b03811615610c4157610c20600085600080611116565b6001600160a01b038116600090815260036020526040902080546000190190555b6001600160a01b03851615610c70576001600160a01b0385166000908152600360205260409020805460010190555b60008481526002602052604080822080546001600160a01b0319166001600160a01b0389811691821790925591518793918516917fddf252ad1be2c89b69c2b068fc378daa952ba7f163c4a11628f55a4df523b3ef91a4949350505050565b6007546001600160a01b031633146107005760405163118cdaa760e01b815233600482015260240161064f565b610d04611280565b6007805460ff60a01b191690557f5db9ee0a495bf2e6ff9c91a7834c1ba4fdd244a5e8aa4e537bd38aeae4b073aa335b6040516001600160a01b03909116815260200160405180910390a1565b600780546001600160a01b038381166001600160a01b0319831681179093556040519116919082907f8be0079c531659141344cd1fd0a4f28419497f9722a3daafe3b4186f6b6457e090600090a35050565b600754600160a01b900460ff16156107005760405163d93c066560e01b815260040160405180910390fd5b61061a8282604051806020016040528060008152506112aa565b6000828152600660205260409020610e008282611922565b506040518281527ff8e1a15aba9398e019f0b49df1a4fde98ee17ae345cb5f6b5e2c27f5033e8ce79060200160405180910390a15050565b805b801561061a57600a5433907fdd267707350af9eb002f84a2bc2278781818109ea58377b5bc92601ce3a5c53f610e6f826109c3565b604051610e7c9190611577565b60405180910390a380610e8e816119e2565b915050610e3a565b610e9e610da3565b6007805460ff60a01b1916600160a01b1790557f62e78cea01bee320cd4e420270b5ea74000d11b0c9f74754ebdbfc544b05a258610d343390565b6001600160a01b038216610f0b57604051630b61174360e31b81526001600160a01b038316600482015260240161064f565b6001600160a01b03838116600081815260056020908152604080832094871680845294825291829020805460ff191686151590811790915591519182527f17307eab39ab6107e8899845ad3d59bd9653f200f220920489ca2b5937696c31910160405180910390a3505050565b6001600160a01b0383163b156106b357604051630a85bd0160e11b81526001600160a01b0384169063150b7a0290610fba9033908890879087906004016119f9565b6020604051808303816000875af1925050508015610ff5575060408051601f3d908101601f19168201909252610ff291810190611a36565b60015b61105e573d808015611023576040519150601f19603f3d011682016040523d82523d6000602084013e611028565b606091505b50805160000361105657604051633250574960e11b81526001600160a01b038516600482015260240161064f565b805181602001fd5b6001600160e01b03198116630a85bd0160e11b1461109a57604051633250574960e11b81526001600160a01b038516600482015260240161064f565b5050505050565b60606110ac82610b90565b5060006110c460408051602081019091526000815290565b905060008151116110e4576040518060200160405280600081525061110f565b806110ee846112c1565b6040516020016110ff9291906118a5565b6040516020818303038152906040525b9392505050565b808061112a57506001600160a01b03821615155b156111ec57600061113a84610b90565b90506001600160a01b038316158015906111665750826001600160a01b0316816001600160a01b031614155b801561117957506111778184610ad4565b155b156111a25760405163a9fbf51f60e01b81526001600160a01b038416600482015260240161064f565b81156111ea5783856001600160a01b0316826001600160a01b03167f8c5be1e5ebec7d5bd14f71427d1e84f3dd0314c0f7b2291e5b200ac8c7c3b92560405160405180910390a45b505b5050600090815260046020526040902080546001600160a01b0319166001600160a01b0392909216919091179055565b611227838383611354565b61071d576001600160a01b03831661125557604051637e27328960e01b81526004810182905260240161064f565b60405163177e802f60e01b81526001600160a01b03831660048201526024810182905260440161064f565b600754600160a01b900460ff1661070057604051638dfc202b60e01b815260040160405180910390fd5b6112b483836113b7565b61071d6000848484610f78565b606060006112ce8361141c565b600101905060008167ffffffffffffffff8111156112ee576112ee611640565b6040519080825280601f01601f191660200182016040528015611318576020820181803683370190505b5090508181016020015b600019016f181899199a1a9b1b9c1cb0b131b232b360811b600a86061a8153600a850494508461132257509392505050565b60006001600160a01b03831615801590610acc5750826001600160a01b0316846001600160a01b0316148061138e575061138e8484610ad4565b80610acc5750506000908152600460205260409020546001600160a01b03908116911614919050565b6001600160a01b0382166113e157604051633250574960e11b81526000600482015260240161064f565b60006113ef83836000610bd6565b90506001600160a01b0381161561071d576040516339e3563760e11b81526000600482015260240161064f565b60008072184f03e93ff9f4daa797ed6e38ed64bf6a1f0160401b831061145b5772184f03e93ff9f4daa797ed6e38ed64bf6a1f0160401b830492506040015b6d04ee2d6d415b85acef81000000008310611487576d04ee2d6d415b85acef8100000000830492506020015b662386f26fc1000083106114a557662386f26fc10000830492506010015b6305f5e10083106114bd576305f5e100830492506008015b61271083106114d157612710830492506004015b606483106114e3576064830492506002015b600a831061054e5760010192915050565b6001600160e01b031981168114610b3d57600080fd5b60006020828403121561151c57600080fd5b813561110f816114f4565b60005b8381101561154257818101518382015260200161152a565b50506000910152565b60008151808452611563816020860160208601611527565b601f01601f19169290920160200192915050565b60208152600061110f602083018461154b565b60006020828403121561159c57600080fd5b5035919050565b80356001600160a01b03811681146115ba57600080fd5b919050565b600080604083850312156115d257600080fd5b6115db836115a3565b946020939093013593505050565b6000806000606084860312156115fe57600080fd5b611607846115a3565b9250611615602085016115a3565b9150604084013590509250925092565b60006020828403121561163757600080fd5b61110f826115a3565b634e487b7160e01b600052604160045260246000fd5b600067ffffffffffffffff8084111561167157611671611640565b604051601f8501601f19908116603f0116810190828211818310171561169957611699611640565b816040528093508581528686860111156116b257600080fd5b858560208301376000602087830101525050509392505050565b600080604083850312156116df57600080fd5b82359150602083013567ffffffffffffffff8111156116fd57600080fd5b8301601f8101851361170e57600080fd5b61171d85823560208401611656565b9150509250929050565b6000806040838503121561173a57600080fd5b611743836115a3565b91506020830135801515811461175857600080fd5b809150509250929050565b6000806000806080858703121561177957600080fd5b611782856115a3565b9350611790602086016115a3565b925060408501359150606085013567ffffffffffffffff8111156117b357600080fd5b8501601f810187136117c457600080fd5b6117d387823560208401611656565b91505092959194509250565b600080604083850312156117f257600080fd5b6117fb836115a3565b9150611809602084016115a3565b90509250929050565b600181811c9082168061182657607f821691505b60208210810361184657634e487b7160e01b600052602260045260246000fd5b50919050565b634e487b7160e01b600052601160045260246000fd5b808202811582820484141761054e5761054e61184c565b8082018082111561054e5761054e61184c565b60006001820161189e5761189e61184c565b5060010190565b600083516118b7818460208801611527565b8351908301906118cb818360208801611527565b01949350505050565b601f82111561071d57600081815260208120601f850160051c810160208610156118fb5750805b601f850160051c820191505b8181101561191a57828155600101611907565b505050505050565b815167ffffffffffffffff81111561193c5761193c611640565b6119508161194a8454611812565b846118d4565b602080601f831160018114611985576000841561196d5750858301515b600019600386901b1c1916600185901b17855561191a565b600085815260208120601f198616915b828110156119b457888601518255948401946001909101908401611995565b50858210156119d25787850151600019600388901b60f8161c191681555b5050505050600190811b01905550565b6000816119f1576119f161184c565b506000190190565b6001600160a01b0385811682528416602082015260408101839052608060608201819052600090611a2c9083018461154b565b9695505050505050565b600060208284031215611a4857600080fd5b815161110f816114f456fea264697066735822122011cf2ee81a1a23ccb272088115712a07bb22c0021c35da4936374ffa9109d2c164736f6c63430008140033",
  "linkReferences": {},
  "deployedLinkReferences": {}
}